:020000040800F2
:1000000000800120ED230008650900086709000849
:10001000690900086B0900086D090008000000006C
:100020000000000000000000000000006F09000850
:100030007109000800000000730900087509000834
:100040003D2400083D2400083D2400083D2400080C
:100050003D2400083D2400083D2400083D240008FC
:100060003D2400083D2400083D2400083D240008EC
:100070003D2400083D2400083D2400083D240008DC
:100080007D0900088D0900083D24000800000000DB
:100090000000000000000000000000003D240008F7
:1000A0003D2400083D2400083D2400083D240008AC
:1000B0003D2400083D2400083D2400083D2400089C
:1000C0003D2400083D2400083D2400083D2400088C
:1000D0003D2400083D2400089D09000800000000A0
:1000E000AD0900083D2400083D2400080000000080
:1000F0000000000000000000000000003D24000897
:10010000000000003D2400083D2400083D240008B4
:1001100000000000000000000000000000000000DF
:100120003D2400083D2400083D2400083D2400082B
:100130003D24000800000000000000000000000056
:100140000000000000000000000000003D24000846
:100150003D2400083D2400083D2400083D240008FB
:100160003D2400083D2400080000000000000000BD
:10017000000000000000000000000000000000007F
:10018000000000003D240008000000000000000006
:040190003D24000802
:100194000348044B834202D0034B03B11847704712
:1001A4000C0000200C000020000000000548064957
:1001B4000B1AD90F01EBA301491002D0034B03B171
:1001C400184770470C0000200C00002000000000BD
:1001D40010B5064C237843B9FFF7DAFF044B13B18B
:1001E4000448AFF300800123237010BD0C000020ED
:1001F400000000004024000808B5044B1BB104496A
:100204000448AFF30080BDE80840CFE700000000D9
:10021400100000204024000870B50D4E0D4D761BD3
:10022400B61006D00024013455F8043B9847A64282
:10023400F9D1094E094D761B02F000F9B61006D02B
:100244000024013455F8043B9847A642F9D170BD07
:10025400BC240008BC240008C0240008BC240008F6
:10026400F0B4860746D0541E002A3CD0CAB20346D6
:1002740002E014F1FF3436D303F8012B9D07F8D1C3
:10028400032C29D9CDB245EA05250F2C45EA0545AD
:1002940033D9A4F11006360903F1200707EB06173A
:1002A40003F1100242E9045542E902551032BA4200
:1002B400F8D1721C14F00C0F03EB021204F00F06B9
:1002C40013D0331F23F003030433134442F8045BB5
:1002D4009342FBD106F003042CB1C9B21C4403F8C9
:1002E400011B9C42FBD1F0BC704734461346002CE2
:1002F400F3D1F8E714460346C2E71A462646E0E778
:1003040053B94AB9002908BF00281CBF4FF0FF3178
:100314004FF0FF3000F06EB9ADF1080C6DE904CE7A
:1003240000F006F8DDF804E0DDE9022304B07047CC
:100334002DE9F047089D04468C46002B40F083804D
:100344008A42174647D9B2FA82F242B1C2F120007A
:1003540024FA00F09140974040EA010C94404FEA9F
:100364001748230CBCFBF8F61FFA87FE08FB16C1DE
:1003740043EA014306FB0EF1994209D9FB1806F141
:10038400FF3080F01981994240F21681023E3B44CD
:100394005B1AA4B2B3FBF8F008FB103344EA03443D
:1003A40000FB0EFEA64509D93C1900F1FF3380F08D
:1003B4000581A64540F2028102383C4440EA0640E9
:1003C400A4EB0E0400261DB1D4400023C5E900436C
:1003D4003146BDE8F08702B9FFDEB2FA82F2002AA4
:1003E40050D1CB1B4FEA174E1FFA87F80126B3FBF7
:1003F400FEFC210C0EFB1C3341EA034108FB0CF309
:100404008B4207D979180CF1FF3002D28B4200F2EB
:10041400E9808446C91AA3B2B1FBFEF00EFB1011A9
:1004240043EA014408FB00F8A04507D93C1900F150
:10043400FF3302D2A04500F2D9801846A4EB080489
:1004440040EA0C40BFE78B4209D9002D00F0B1808F
:100454000026C5E9000130463146BDE8F087B3FA0D
:1004640083F6002E4AD18B4202D3824200F2B88036
:10047400841A61EB030101208C46002DA8D0C5E944
:10048400004CA5E7C2F1200320FA03F6974001FAD5
:1004940002F04FEA174ED9403043030CB1FBFEF68D
:1004A4001FFA87F80EFB161143EA014306FB08F115
:1004B400994204FA02F409D9FB1806F1FF3C80F0D2
:1004C4008D80994240F28A80023E3B445B1A81B29D
:1004D400B3FBFEF00EFB103341EA034100FB08F3CB
:1004E4008B4207D9791800F1FF3C73D28B4271D942
:1004F40002383944CB1A40EA064678E7C6F1200CA4
:1005040003FA06F422FA0CF31C4320FA0CF701FA5E
:1005140006F34FEA144E21FA0CF11F433B0CB1FBD6
:10052400FEF91FFA84F80EFB191143EA014109FB95
:1005340008FA8A4502FA06F200FA06F308D96118A5
:1005440009F1FF3048D28A4546D9A9F1020921446C
:10055400A1EB0A01BFB2B1FBFEF00EFB101147EA9A
:10056400014700FB08F8B84507D9E71900F1FF3146
:100574002ED2B8452CD90238274440EA0940A7EBCB
:100584000807A0FB02894F45C64649461AD317D02F
:100594005DB1B3EB0E0267EB010707FA0CFCF24006
:1005A4004CEA0202F740C5E9002700263146BDE8BF
:1005B400F0872E4628460BE70646E9E61846FDE690
:1005C4004345E5D2B8EB020E69EB04010138DFE7DD
:1005D4000846D2E760468DE78146B9E7664675E787
:1005E40030464AE7ACF1020C394413E702383C4484
:1005F40024E700BF704700BF30B589B000240394DE
:10060400049405940694079401941C4B1A6B42F0CD
:1006140004021A631A6B02F004020192019A029412
:100624001A6B42F001021A631B6B03F0010302937D
:10063400029B134D22462021284600F01CFF4FF454
:10064400005303934FF444130493059403A90D48F2
:1006540000F032FE202303930123049305940694AF
:1006640003A9284600F028FE22462146282001F04E
:100674008FF9282001F0C0F909B030BD00380240DC
:10068400000002400008024010B582B0002401942A
:100694000D4B1A6B42F400121A631B6B03F4001324
:1006A4000193019B22462146102001F071F910208C
:1006B40001F0A2F922462146112001F069F9112026
:1006C40001F09AF902B010BD0038024070470000F2
:1006D400B0F5005F00D0704708B54FF4005100F149
:1006E400804000F5F43000F0BFFE18B91E4B002224
:1006F4001A8008BD1D4B1B68012B0CD0022B1CD08B
:10070400002BF6D10B221A491A4801F035FB174B7E
:1007140001221A60EDE7144B1B8843B9134B0222E4
:100724001A600B221449134801F026FBE1E70B225F
:100734001249104801F020FBDBE70B4B1B88052B0B
:1007440008D90A4B00221A600B220D49094801F00E
:1007540013FBCEE7054B01221A600B220949054819
:1007640001F00AFBC5E700BF280000202C00002090
:10077400582400087801002064240008702400082C
:100784007C2400088824000872B6FEE708B50948EE
:10079400094B03600F234360002383604FF6FF720D
:1007A400C2600361836100F039FA00B908BDFFF744
:1007B400EBFF00BF940000200044014008B50A4844
:1007C4000A4B03604FF4E133436000238360C3604A
:1007D40003610C2242618361C36101F09DFA00B997
:1007E40008BDFFF7D1FF00BF78010020004400409E
:1007F40000B595B03022002108A8FFF731FD002391
:10080400039304930593069307930193194A116C78
:1008140041F080511164126C02F080520192019AED
:10082400029315490A6822F4404242F400420A60E5
:100834000A6802F440420292029A022208920122B9
:100844000B9210220C920E9308A800F013FA68B9C8
:100854000F2303930021049105910691079103A8A6
:1008640000F054FC20B915B05DF804FBFFF78CFFD1
:10087400FFF78AFF003802400070004008B501F01D
:1008840005F9FFF7B5FFFFF7B7FEFFF77FFFFFF7A7
:10089400FBFEFFF793FF2C4800F03CF910E02B4CD3
:1008A40001222021204600F0E6FD642001F01AF91F
:1008B40000222021204600F0DEFD642001F012F920
:1008C400234D244C0A222946204601F071FD30BFF5
:1008D4000A222946204601F04FFA1F4B1B68012BC0
:1008E40009D0022B15D0002BD9D000222021174883
:1008F40000F0C1FDE4E701222021144800F0BBFD13
:100904004FF47A7001F0EEF8144A1388013313801F
:10091400D6E70E4D01222021284600F0ACFD4FF40D
:100924007A7001F0DFF80D4C238801332380002214
:100934002021284600F09FFD4FF47A7001F0D2F890
:10094400238801332380BBE7940000200000024089
:1009540070010020780100202C00002028000020D5
:10096400FEE7FEE7FEE7FEE7FEE7704770477047E5
:1009740008B501F0A5F808BD08B5024800F008FF65
:1009840008BD00BF3000002008B5024800F000FF99
:1009940008BD00BF1001002008B5024801F01CFB8F
:1009A40008BD00BF7801002008B54FF4005000F0E6
:1009B40069FD08BD82B0002100910B4B5A6C42F4D2
:1009C40080425A645A6C02F480420092009A019167
:1009D4001A6C42F080521A641B6C03F0805301932A
:1009E400019B02B0704700BF003802400268094B07
:1009F4009A4200D0704782B000230193064B5A6C90
:100A040042F400325A645B6C03F400330193019B9B
:100A140002B07047004401400038024030B589B04C
:100A24000023039304930593069307930268334BBF
:100A34009A4201D009B030BD04460025019503F562
:100A4400FA331A6C42F400321A641A6C02F400325B
:100A54000192019A02951A6B42F001021A631B6B10
:100A640003F001030293029B0C23039302230493D8
:100A74000595032306930723079303A9204800F051
:100A84001BFC2048204B03604FF0006343608560EB
:100A9400C5604FF48063036145618561C56105628A
:100AA400456200F07DFD18BB164BA3639C63174899
:100AB400174B03604FF000634360402383600023BF
:100AC400C3604FF48062026143618361C361036266
:100AD400436200F065FD70B90C4B63639C630022B4
:100AE4001146262000F054FF262000F085FFA1E7E0
:100AF400FFF74AFED8E7FFF747FEEDE70044004062
:100B040000000240300000208860024010010020F4
:100B1400A060024090F83D30DBB2012B2AD10223C1
:100B240080F83D300368154A934218D0B3F1804FE2
:100B340015D0A2F57C42934211D002F58062934213
:100B44000DD002F58062934209D002F59A329342A5
:100B540005D01A6842F001021A60002070479A68B2
:100B640002F00702062A07D01A6842F001021A604E
:100B740000207047012070470020704700000140AA
:100B84000368254A90420ED0B0F1804F0BD0A2F5F5
:100B94007C42904207D002F58062904203D002F575
:100BA4008062904203D123F070034A6813431A4AC7
:100BB40090421AD0B0F1804F17D0A2F57C429042F7
:100BC40013D002F5806290420FD002F58062904209
:100BD4000BD002F59A32904207D002F5806290421F
:100BE40003D002F58062904203D123F44073CA68B3
:100BF400134323F080034A69134303608B68C36281
:100C04000B688362044B984202D00123436170470E
:100C14000B690363F9E700BF0000014040B310B55E
:100C2400044690F83D30F3B1022384F83D30214668
:100C340051F8040BFFF7A4FF012384F8463084F82D
:100C44003E3084F83F3084F8403084F8413084F8F2
:100C5400423084F8433084F8443084F8453084F8D2
:100C64003D30002010BD80F83C30FFF7BFFEDBE7CD
:100C740001207047002800F0DF8170B582B004467F
:100C8400036813F0010F3BD0A64B9B6803F00C03E1
:100C9400042B2CD0A34B9B6803F00C03082B21D00E
:100CA4006368B3F5803F4FD0B3F5A02F52D09D4B6E
:100CB4001A6822F480321A601A6822F480221A60B8
:100CC4006368002B50D000F007FF0546954B1B6866
:100CD40013F4003F14D100F0FFFE401B6428F5D943
:100CE4000320B0E18F4B5B6813F4800FD8D08D4B99
:100CF4001B6813F4003F03D06368002B00F09E814F
:100D0400236813F0020F54D0864B9B6813F00C0F2A
:100D14003ED0844B9B6803F00C03082B33D0E3686C
:100D2400002B67D0804B01221A6000F0D5FE0546E7
:100D34007C4B1B6813F0020F53D100F0CDFE401B17
:100D44000228F5D903207EE1764A136843F4803300
:100D54001360B5E7734B1A6842F480221A601A686C
:100D640042F480321A60ABE700F0B6FE05466D4BE4
:100D74001B6813F4003FC3D000F0AEFE401B642890
:100D8400F5D903205FE1674B5B6813F4800FC6D18C
:100D9400644B1B6813F0020F03D0E368012B40F08F
:100DA4004F81604A136823F0F803216943EAC103C1
:100DB4001360236813F0080F40D0636963B35B4B7F
:100DC40001221A6000F088FE0546564B5B6F13F053
:100DD400020F33D100F080FE401B0228F5D9032016
:100DE40031E1504A136823F0F803216943EAC1034F
:100DF4001360DEE74C4B00221A6000F06DFE0546DE
:100E0400484B1B6813F0020FD3D000F065FE401B63
:100E14000228F5D9032016E1444B00221A6000F0A1
:100E24005BFE05463F4B5B6F13F0020F06D000F0EC
:100E340053FE401B0228F5D9032004E1236813F074
:100E4400040F78D0374B1B6C13F0805F0DD1002357
:100E54000193344B1A6C42F080521A641B6C03F0F9
:100E640080530193019B012500E00025304B1B6852
:100E740013F4807F21D0A368012B32D0052B36D008
:100E8400284B1A6F22F001021A671A6F22F004022B
:100E94001A67A368002B34D000F01EFE0646214BCF
:100EA4001B6F13F0020F45D100F016FE801B41F2B8
:100EB40088339842F3D90320C5E01D4A136843F4EC
:100EC4008073136000F008FE0646194B1B6813F488
:100ED400807FD0D100F000FE801B0228F5D90320CA
:100EE400B1E0104A136F43F001031367D1E70D4BD0
:100EF4001A6F42F004021A671A6F42F001021A676D
:100F0400C7E700F0E9FD0646064B1B6F13F0020F1E
:100F140010D000F0E1FD801B41F288339842F3D9F0
:100F2400032090E00038024000004742800E474210
:100F340000700040EDB9A369002B00F08380494A9A
:100F4400926802F00C02082A51D0022B17D0464BAB
:100F540000221A6000F0C0FD0446424B1B6813F0E7
:100F6400007F42D000F0B8FD001B0228F5D9032011
:100F740069E03C4A136C23F080531364DBE73A4B7B
:100F840000221A6000F0A8FD0546364B1B6813F0DA
:100F9400007F06D000F0A0FD401B0228F5D90320F5
:100FA40051E0E369226A1343626A43EA8213A26A44
:100FB4005208013A43EA0243E26A43EA0263294AD5
:100FC4005360294B01221A6000F086FD0446254B2C
:100FD4001B6813F0007F06D100F07EFD001B022881
:100FE400F5D903202FE000202DE000202BE0012B79
:100FF4002BD01C4B5B6803F48001E269914226D13B
:1010040003F03F02216A8A4223D1616A47F6C07223
:101014001A40B2EB811F1ED103F44031A26A520878
:10102400013AB1EB024F18D103F07063E26AB3EBFB
:10103400026F14D1002006E001207047012002E075
:10104400012000E0002002B070BD0120FBE7012078
:10105400F9E70120F7E70120F5E70120F3E7012094
:10106400F1E700BF0038024060004742F8B5244B66
:101074009B6803F00C03042B3DD0082B3DD1204B7F
:101084005A6802F03F025B6813F4800F12D01C4BC5
:101094005968C1F3881100231A48A1FB0001FFF726
:1010A4002FF9174B5B68C3F3014301335B00B0FBBB
:1010B400F3F023E0124B5B68C3F388135C01002553
:1010C400E41A65F10005AE0146EA9466A701381BEF
:1010D40066EB0501CC0044EA5074C500E81844F1FD
:1010E40000018B0243EA90538402204619460023F0
:1010F400FFF706F9D5E7034800E00348F8BD00BF51
:101104000038024040787D010024F400002800F0FB
:101114009B8070B50D4604464F4B1B6803F00703D4
:101124008B4208D2CBB24C4A1370136803F0070306
:101134008B4240F08B80236813F0020F17D013F01A
:10114400040F04D0454A936843F4E0539360236842
:1011540013F0080F04D0414A936843F4604393604A
:101164003E4A936823F0F003A1680B43936023681D
:1011740013F0010F32D06368012B21D09A1E012A8B
:1011840025D9364A126812F0020F61D033498A68B1
:1011940022F0030213438B6000F09EFC06462F4BA3
:1011A4009B6803F00C036268B3EB820F16D000F067
:1011B40093FC801B41F288339842F0D9032042E02B
:1011C400264A126812F4003FE0D101203BE0234A92
:1011D400126812F0007FD9D1012034E01E4B1B6845
:1011E40003F00703AB4207D9EAB21B4B1A701B6822
:1011F40003F00703AB422DD1236813F0040F06D08C
:10120400164A936823F4E053E1680B439360236820
:1012140013F0080F07D0114A936823F4604321693F
:1012240043EAC1039360FFF721FF0C4B9B68C3F3B0
:1012340003130B4AD35CD8400A4B18600A4B186856
:1012440000F0FEFB002070BD012070470120FAE78A
:101254000120F8E70120F6E7003C02400038024094
:101264009C2400080800002004000020014B18689A
:10127400704700BF0800002008B5FFF7F7FF044BD4
:101284009B68C3F38223034AD35CD84008BD00BFE4
:1012940000380240AC24000808B5FFF7E7FF044B10
:1012A4009B68C3F34233034AD35CD84008BD00BFF4
:1012B40000380240AC24000800230F2B00F2CB803E
:1012C400F0B482B05DE086685F000324BC4026EA87
:1012D4000406CC68BC4034438460466826EA0206AF
:1012E4004C68C4F300129A403243426057E0DC0871
:1012F400083450F8247003F0070296000F22B2401D
:1013040027EA02070A69B2403A4340F824205AE027
:10131400042200E00022B2403A4302344E4E46F822
:1013240024204E4A9468EA4324EA05064F6817F4D9
:10133400801F01D045EA0406484CA660E46802EA2E
:1013440004064F6817F4001F01D045EA0406434C15
:10135400E660646802EA04064F6817F4003F01D0AF
:1013640045EA04063D4C6660246822404E6816F443
:10137400803F01D045EA0402384C226001330F2B30
:1013840066D801229A400C6804EA020532EA040491
:10139400F4D14C6804F00304013C012C93D94A684D
:1013A40002F00302032A09D0C4685E000322B2409B
:1013B40024EA02048A68B2402243C2604A6802F006
:1013C4000302022A93D004685E000322B24024EA96
:1013D40002044A6802F00302B240224302604A68EF
:1013E40012F4403FCAD0002201921D4A546C44F4C6
:1013F40080445464526C02F480420192019A9C0825
:10140400A61C154A52F8267003F0030296000F2218
:10141400B24027EA0207134A90423FF47BAF02F539
:10142400806290420ED002F5806290420CD002F5A8
:10143400806290420AD002F5806290423FF468AF25
:10144400072268E7012266E7022264E7032262E7D3
:1014540002B0F0BC7047704700380140003C0140C6
:1014640000380240000002400369194201D0012003
:101474007047002070470AB1816170470904816197
:101484007047000008B5054B5B69034200D108BDF5
:10149400024B5861FFF71CF9F9E700BF003C01401B
:1014A40030B405682C6824F480242C6004686360DC
:1014B4008368402B05D0036899600368DA6030BC08
:1014C400704703689A600368D960F8E710B403684A
:1014D400D9B210390C4AA2FB014212090B4CA25C8E
:1014E400C2655F2909D923F47F7323F0030304330E
:1014F4008365806D5DF8044B704723F47F7323F09C
:1015040003038365F5E700BFABAAAAAA94240008E5
:10151400836A826992B9012B0AD0022B02D00BB1E3
:1015240000207047C36A13F0807F28D100207047E1
:10153400C36AB3F1C07F24D000207047B2F5005FC6
:1015440009D0022B25D9032B25D1C36A13F0807F40
:1015540023D100207047032B03D8DFE803F01404E1
:10156400140A00207047C36A13F0807F0DD1002055
:101574007047C36AB3F1C07F09D0002070470120CF
:1015840070470120704701207047012070470120F7
:101594007047012070470020704701207047000009
:1015A40070B5044600F098FA002C5BD0054602237F
:1015B40084F83530002384F834302268136823F02B
:1015C4000103136023681A6812F0010F0AD000F0B7
:1015D40083FA431B052BF5D920236365032084F884
:1015E400350070BD1A68204810406168A2680A433B
:1015F400E1680A4321690A4361690A43A1690A430C
:10160400E1690A43216A0A430243616A04291ED03C
:101614001A602668756925F00705636A1D43042B63
:1016240007D1A36A1D43E36A1BB12046FFF770FF8D
:1016340090B975612046FFF749FFE26D3F2393405F
:10164400836000206065012384F83530C9E7E16ACE
:10165400206B01430A43DBE740236365012084F8E0
:101664003500BEE70120BCE73F8010F038B50446E2
:10167400856D90F8340001282BD0012084F83400C3
:1016840094F83500C0B2012804D0002384F8343023
:10169400022038BD022084F8350000206065204611
:1016A400FFF7FEFEE26D3F239340AB6022681368B0
:1016B40043F016031360236C23B12268136843F0CC
:1016C400080313602268136843F0010313600020C9
:1016D400DFE70220DDE770B50446866D00F0FCF913
:1016E40094F83530DBB2022B06D0802363650023E7
:1016F40084F83430012070BD05462268136823F055
:10170400160313602268536923F080035361236C2A
:10171400E3B12268136823F0080313602268136896
:1017240023F00103136023681B6813F0010F11D029
:1017340000F0D2F9431B052BF5D920236365032060
:1017440084F83500002384F83430D4E7A36C002BEC
:10175400DFD1E3E7E26D3F239340B360012384F8D4
:101764003530002084F83400C5E790F83530DBB21A
:10177400022B03D08023436501207047052380F8A2
:1017840035300268136823F00103136000207047AA
:10179400F0B583B0044600230193724B1D68724B6D
:1017A400A3FB0535AD0A876D3E68C26D08239340DF
:1017B400334210D003681A6812F0040F0BD01A6871
:1017C40022F004021A60C26D08239340BB60436D8B
:1017D40043F001034365E26D01239340334209D092
:1017E4002268526912F0800F04D0BB60636D43F02D
:1017F40002036365E26D04239340334209D02268F7
:10180400126812F0020F04D0BB60636D43F004034E
:101814006365E26D10239340334224D0226812683A
:1018240012F0080F1FD0BB6023681A6812F4802FCF
:101834000DD01B6813F4002F04D1236C9BB12046F8
:10184400984710E0A36C73B1204698470BE01A68E0
:1018540012F4807F03D11A6822F008021A60236C04
:101864000BB120469847E26D20239340334255D074
:101874002268126812F0100F50D0BB6094F8353013
:10188400DBB2052B0ED023681A6812F4802F33D0F4
:101894001B6813F4002F2AD1636C002B3ED0204622
:1018A40098473BE02268136823F01603136022680C
:1018B400536923F080035361236CA3B12268136836
:1018C40023F008031360E26D3F239340BB600123C0
:1018D40084F83530002384F83430236D002B3FD056
:1018E400204698473CE0A36C002BE7D1EBE7E36B81
:1018F400A3B12046984711E01A6812F4807F09D1F9
:101904001A6822F010021A60012384F8353000238B
:1019140084F83430E36B0BB120469847636DFBB118
:10192400636D13F0010F17D0052384F83530226856
:10193400136823F001031360019B01330193AB424D
:1019440004D823681B6813F0010FF5D1012384F830
:101954003530002384F83430E36C0BB120469847CB
:1019640003B0F0BD08000020B5814E1B074AD368C0
:1019740023F4E0631B041B0C000200F4E060034347
:1019840043F0BF6343F40033D360704700ED00E0DD
:1019940030B4174BDB68C3F30223C3F10704042CF0
:1019A40028BF04241D1D062D18D9033B4FF0FF3515
:1019B40005FA04F421EA0401994005FA03F322EA42
:1019C4000303194300280BDB0901C9B200F160408D
:1019D40000F5614080F8001330BC70470023E5E750
:1019E40000F00F000901C9B2024B1954F4E700BF1B
:1019F40000ED00E014ED00E0002807DB00F01F021A
:101A0400400901239340024A42F82030704700BF46
:101A140000E100E00138B0F1807F0AD2064B586043
:101A2400064AF02182F823100020986007221A60E9
:101A340070470120704700BF10E000E000ED00E0B7
:101A440010B504460E4B18784FF47A73B3FBF0F3D9
:101A54000C4A1068B0FBF3F0FFF7DCFF68B90F2CF9
:101A640001D901200AE0002221464FF0FF30FFF7A0
:101A74008FFF054B1C60002000E0012010BD00BF5B
:101A840000000020080000200400002008B50B4BD3
:101A94001A6842F400721A601A6842F480621A608A
:101AA4001A6842F480721A600320FFF75FFF0F2068
:101AB400FFF7C6FFFEF77EFF002008BD003C024092
:101AC400034A1168034B1B780B441360704700BF33
:101AD400BC01002000000020014B1868704700BFC3
:101AE400BC01002038B50446FFF7F6FF0546B4F103
:101AF400FF3F02D0044B1B781C44FFF7EDFF401B53
:101B0400A042FAD338BD00BF00000020034AD2F837
:101B1400883043F47003C2F88830704700ED00E069
:101B2400026802F10C0353E8003F23F0C0030C32B7
:101B340042E800310029F3D1202380F83D3070477A
:101B4400026802F10C0353E8003F23F490730C3253
:101B540042E800310029F3D1026802F1140353E88A
:101B6400003F23F00103143242E800310029F3D18D
:101B7400036B012B05D0202380F83E300023036340
:101B84007047026802F10C0353E8003F23F010038E
:101B94000C3242E800310029F3D1ECE790F83D30F3
:101BA400DBB2212B01D0022070478368B3F5805F3C
:101BB40017D0036A5A1C02621A7803685A60C38CED
:101BC4009BB2013B9BB2C3844BB90268D36823F038
:101BD4008003D3600268D36843F04003D3600020DD
:101BE40070470369002BE4D1036A1B880268C3F3BE
:101BF40008035360036A02330362E0E770B50446E6
:101C04000268136923F44053C1680B43136183686A
:101C14000269134342691343C2691A430168CB68DA
:101C240023F4164323F00C031343CB600268536977
:101C340023F4407381690B4353610368344A93422C
:101C440006D002F58062934202D0FFF715FB01E053
:101C5400FFF722FBE369B3F5004F2AD000260518ED
:101C640046EB06012D1846EB0101CB0043EA557300
:101C7400EA001546194663689A009B0F281846EB3C
:101C84000101FEF73DFB234DA5FB003251096423FE
:101C940003FB11031B013233A5FB03235B0903F090
:101CA400F00202EB011203F00F03216813448B606E
:101CB40070BD0026051846EB06012D1846EB010100
:101CC400CB0043EA5573EA00154619466268334669
:101CD400921846EB0303281846EB0101FEF710FBAC
:101CE4000C4DA5FB00325109642303FB1103DB00F7
:101CF4003233A5FB03235B095A0002F4F87202EBAA
:101D0400011203F00703216813448B60D0E700BF7E
:101D1400001001401F85EB5158B310B5044690F8EC
:101D24003D300BB3242384F83D302268D36823F478
:101D34000053D3602046FFF761FF2268136923F440
:101D4400904313612268536923F02A035361226884
:101D5400D36843F40053D36000202064202384F824
:101D64003D3084F83E3010BD80F83C30FEF756FE1E
:101D7400D8E701207047000038B590F83D30DBB259
:101D8400202B38D10446002937D0002A37D090F8C8
:101D94003C30012B35D0012380F83C300162828431
:101DA400C28400250564212380F83D30436B164826
:101DB400D863636B15481864636B1548D864636B08
:101DC4001D6520681346021D606BFFF74FFC2368F6
:101DD4006FF040021A6084F83C50226802F1140348
:101DE40053E8003F43F08003143242E800310029F5
:101DF400F3D1002000E0022038BD0120FCE70120DF
:101E0400FAE70220F8E700BF1B1E0008831E000843
:101E1400911E0008704708B50346806B1B681B6859
:101E240013F4807F1AD10023C384026802F11403DF
:101E340053E8003F23F08003143242E800310029C4
:101E4400F3D1026802F10C0353E8003F43F040036E
:101E54000C3242E800310029F3D108BDFFF7DAFF64
:101E6400FBE708B50168CA6822F04002CA60202274
:101E740080F83D20FFF7CEFF002008BD704708B56D
:101E8400806BFFF7FBFF08BD7047704710B5846B8C
:101E940023685A6994F83D30DBB2212B10D02368B3
:101EA4005A6902F0400294F83E30DBB2222B11D082
:101EB400236C43F0100323642046FFF7E6FF10BDB4
:101EC40002F08002002AEAD00023E3842046FFF7D0
:101ED40027FEE4E7002AEBD00023E3852046FFF742
:101EE4002FFEE5E708B5806B0023C385C384FFF7A5
:101EF400CCFF08BD704790F83E30DBB2222B67D18F
:101F04008368B3F5805F4DD0826AB3F5805F04D0F7
:101F1400002B54D10369002B51D103685B68137003
:101F2400836A01338362C38D9BB2013B9BB2C38539
:101F3400002B4FD100B583B00268D36823F020038F
:101F4400D3600268D36823F48073D3600268536952
:101F540023F001035361202380F83E30036B012BEF
:101F640033D100230363026802F10C0353E8003FFA
:101F740023F010030C3242E800310029F3D1036846
:101F84001A6812F0100F06D0002201921A6801920A
:101F94005B680193019B818DFFF7ACFF002003B0C8
:101FA4005DF804FB0269002AAED1826A03685B68AB
:101FB400C3F308031380836A02338362B3E70368BD
:101FC4005B6803F07F031370AAE7FEF77FFBE5E786
:101FD400022070470020704730B583B00446026881
:101FE4001368D068516913F00F0505D113F0200F61
:101FF40002D010F0200F19D12DB111F0010119D127
:1020040010F4907F16D1216B01297DD013F0800F3D
:1020140003D010F0800F40F0158113F0400F03D06F
:1020240010F0400F40F0128103B030BD2046FFF79E
:1020340062FFF9E713F0010F06D010F4807F03D09C
:10204400226C42F00102226413F0040F04D019B18F
:10205400226C42F00202226413F0020F04D019B180
:10206400226C42F00402226413F0080F07D010F02F
:10207400200F00D119B1226C42F008022264226CB4
:10208400002AD1D013F0200F02D010F0200F29D154
:1020940023685B6903F04003226C12F0080F00D13F
:1020A40063B32046FFF74CFD23685B6913F0400FD0
:1020B40020D0226802F1140353E8003F23F04003C8
:1020C400143242E800310029F3D1A36B73B1614AA1
:1020D4001A65A06BFFF749FB0028A5D0A06B036D20
:1020E4009847A1E72046FFF706FFD1E72046FFF710
:1020F400CCFE99E72046FFF7C8FE95E72046FFF798
:10210400C4FE002323648FE713F0100F3FF47EAF67
:1021140010F0100F3FF47AAF00230193136801937A
:1021240053680193019B536913F0400F50D0A26B85
:1021340013685B689BB2002B3FF476AFA18D994284
:102144007FF672AFE385D369B3F5807F37D0226819
:1021540002F10C0353E8003F23F480730C3242E88D
:1021640000310029F3D1226802F1140353E8003F3F
:1021740023F00103143242E800310029F3D122682C
:1021840002F1140353E8003F23F04003143242E801
:1021940000310029F3D1202384F83E300023236347
:1021A400226802F10C0353E8003F23F010030C32C1
:1021B40042E800310029F3D1A06BFFF78CFAA18D1E
:1021C400E38D9BB2C91A89B22046FFF793FE2BE731
:1021D400A18DE38D9BB2C91A89B2E38D9BB2002B0A
:1021E4003FF422AF00293FF41FAF226802F10C0331
:1021F40053E8003F23F490730C3242E80030002887
:10220400F3D1226802F1140353E8003F23F00103E1
:10221400143242E800300028F3D1202384F83E3001
:1022240000232363226802F10C0353E8003F23F0E8
:1022340010030C3242E800300028F3D12046FFF7A7
:1022440059FEF1E62046FFF7A9FCEDE62046FFF72C
:1022540008FEE9E6E91E000808B5806B036B012B54
:1022640002D0FFF711FE08BD818D4908FFF742FE39
:10227400F9E708B50346806B1B681B6813F4807F7D
:102284002BD10023C385026802F10C0353E8003FFD
:1022940023F480730C3242E800310029F3D1026840
:1022A40002F1140353E8003F23F00103143242E81F
:1022B40000310029F3D1026802F1140353E8003F0E
:1022C40023F04003143242E800310029F3D12023E3
:1022D40080F83E30036B012B05D0036B012B0FD02C
:1022E400FEF7F4F908BD026802F10C0353E8003F5D
:1022F40023F010030C3242E800310029F3D1ECE75B
:10230400818DFFF7F7FDEDE730B583B00446134642
:102314008162828500250564222280F83E20826B3A
:102324002048D063A26B20481064A26B1F48D0647D
:10233400A26B156520680A46011DA06BFFF796F98C
:10234400019523681A6801925B680193019B84F8E4
:102354003C5023695BB1226802F10C0353E8003F4F
:1023640043F480730C3242E800310029F3D122682F
:1023740002F1140353E8003F43F00103143242E82E
:1023840000310029F3D1226802F1140353E8003F1D
:1023940043F04003143242E800310029F3D1002015
:1023A40003B030BD772200085D220008911E0008AA
:1023B40008B590F83E30DBB2202B0DD171B17AB163
:1023C40090F83C30012B0DD0012380F83C300023E1
:1023D4000363FFF799FF00E0022008BD0120FCE73A
:1023E4000120FAE70220F8E7DFF834D00D480E495F
:1023F4000E4A002302E0D458C4500433C4188C425B
:10240400F9D30B4A0B4C002301E013600432A242BF
:10241400FBD3FFF77BFBFDF7FFFEFEF72FFA7047B8
:1024240000800120000000200C000020C4240008CB
:102434000C000020C0010020FEE70000F8B500BF3A
:10244400F8BC08BC9E467047F8B500BFF8BC08BC91
:042454009E467047E9
:1024580030202D2D3E20310D0A00000031202D2D79
:102468003E20320D0A00000031202D2D3E20310D76
:102478000A00000032202D2D3E20300D0A000000F9
:1024880032202D2D3E20310D0A00000000061016C6
:1024980000061016000000000000000001020304FE
:0C24A80006070809000000000102030400
:0824B40080DEFF7F0100000043
:0424BC00FD01000816
:0424C000D50100083A
:0C24C40001000000100000000024F400E3
:04000005080023EDDF
:00000001FF
